:020000040800F2
:1000000088060020650B00087102000873020008D2
:10001000770200087B0200087F0200080000000051
:100020000000000000000000000000008302000843
:10003000850200080000000087020008890200080D
:100040007F0B00087F0B00087F0B00087F0B000868
:100050007F0B00087F0B00087F0B00087F0B000858
:100060007F0B00087F0B00087F0B00087F0B000848
:100070007F0B00087F0B00087F0B00087F0B000838
:100080007F0B00087F0B00087F0B00087F0B000828
:100090007F0B00087F0B00087F0B00087F0B000818
:1000A0007F0B00087F0B00087F0B00087F0B000808
:1000B0007F0B00087F0B00087F0B00087F0B0008F8
:1000C0007F0B00087F0B00087F0B00087F0B0008E8
:1000D0007F0B00087F0B00087F0B00087F0B0008D8
:1000E0007F0B00087F0B00087F0B00087F0B0008C8
:1000F0007F0B00087F0B00087F0B00087F0B0008B8
:100100007F0B00087F0B00087F0B00087F0B0008A7
:100110007F0B00087F0B00087F0B00087F0B000897
:100120007F0B00087F0B00087F0B00087F0B000887
:1001300000F002F800F03AF80AA090E8000C8244BF
:100140008344AAF10107DA4501D100F02FF8AFF29C
:10015000090EBAE80F0013F0010F18BFFB1A43F0A5
:1001600001031847B40A0000D40A0000103A24BF63
:1001700078C878C1FAD8520724BF30C830C144BF0C
:1001800004680C607047000000230024002500264E
:10019000103A28BF78C1FBD8520728BF30C148BFEA
:1001A0000B6070471FB51FBD10B510BD00F0FDFC02
:1001B0001146FFF7F7FF00F035F800F01BFD03B420
:1001C000FFF7F2FF03BC00F01FFD000008B501219E
:1001D0004FF4907000F05EFC4FF48040ADF80000EA
:1001E00010208DF8030003208DF8020069461D4899
:1001F00000F09AF94FF40050ADF8000010208DF88F
:10020000030003208DF802006946174800F08CF9BE
:1002100008BD01B502E00098401E0090009800283B
:10022000F9D108BD00F0A0F8FFF7D0FF19E00F48A2
:10023000FFF7EFFF4FF480410A4800F022FA4FF435
:100240000051094800F01BFA0848FFF7E2FF4FF49D
:100250008041044800F013FA4FF40051024800F0C6
:1002600010FAE4E70020014000140140FFFF0D00F8
:10027000704700BFFEE700BFFEE700BFFEE700BF1C
:10028000FEE7704770477047704700000CB50020CC
:10029000019000906B48006840F480306949086024
:1002A00000BF6848006800F4003000900198401CCE
:1002B0000190009818B90198B0F5A06FF1D161488C
:1002C000006810F4003F02D00120009001E00020FF
:1002D00000900098012842D15B48006840F010006F
:1002E000594908600846006820F003000860084685
:1002F000006840F002000860524840685149486078
:100300000846406848600846406840F4806048609D
:100310000846406820F47C1048600846406840F475
:10032000E81048600846006840F08070086000BF30
:100330004448006810F0007FFAD04248406820F03E
:100340000300404948600846406840F002004860A9
:1003500000BF3C48406800F00C000828F9D10CBDF3
:1003600010B5FFF793FF10BD10B53648006840F098
:100370000100344908600846406834490840314962
:10038000486008460068324908402E49086008461F
:10039000006820F4802008600846406820F4FE00D1
:1003A00048604FF41F008860FFF7DAFF4FF00060ED
:1003B0002849086010BD10B5002100200022214B03
:1003C0005B6803F00C0121B1042906D0082928D16B
:1003D00007E0214B214C236027E01F4B1F4C23607B
:1003E00023E0184B5B6803F47010164B5B6803F452
:1003F0008032022303EB904022B9194B4343174C40
:1004000023600DE00F4B5B6813F4003F04D0144BE6
:100410004343124C236003E00F4B43430F4C2360D4
:1004200003E00D4B0D4C236000BF00BF054B5B6824
:10043000C3F303130B4CE15C084B1B68CB40074C28
:10044000236010BD00100240002002400000FFF8B1
:10045000FFFFF6FE08ED00E000127A000000002029
:1004600000093D000400002010B50446CA4884423B
:1004700008D10121042000F027FB0021042000F016
:1004800023FB46E0C548844208D10121082000F042
:100490001BFB0021082000F017FB3AE0C048844213
:1004A00008D10121102000F00FFB0021102000F0E6
:1004B0000BFB2EE0BB48844208D10121202000F034
:1004C00003FB0021202000F0FFFA22E0B64884421E
:1004D00008D10121402000F0F7FA0021402000F06F
:1004E000F3FA16E0B148844208D10121802000F0DF
:1004F000EBFA0021802000F0E7FA0AE0AC488442E1
:1005000007D10121801500F0DFFA0021A01500F0CD
:10051000DBFA10BD10B50121084600F0D5FA002124
:10052000012000F0D1FA10BD2DE9F041024600256E
:100530000026002000230024002791F803C00CF0BF
:100540000F0591F803C01CF0100F03D091F802C002
:100550004CEA050591F800C0BCF1000F31D01468D9
:1005600000202BE04FF0010C0CFA00F3B1F800C0B2
:100570000CEA03069E4220D183004FF00F0C0CFAC8
:1005800003F7BC4305FA03FC4CEA040491F803C0EA
:10059000BCF1280F06D14FF0010C0CFA00FCC2F898
:1005A00014C00AE091F803C0BCF1480F05D14FF028
:1005B000010C0CFA00FCC2F810C0401C0828D1D372
:1005C0001460B1F800C0BCF1FF0F34DD54680020A6
:1005D0002EE000F1080C4FF0010808FA0CF3B1F816
:1005E00000C00CEA03069E4221D183004FF00F0C9D
:1005F0000CFA03F7BC4305FA03FC4CEA040491F837
:1006000003C0BCF1280F05D100F1080C08FA0CF862
:10061000C2F8148091F803C0BCF1480F07D100F173
:10062000080C4FF0010808FA0CF8C2F81080401CC2
:100630000828CED35460BDE8F0814FF6FF710180E9
:10064000022181700421C170704702460020936826
:100650000B4201D0012000E000207047014688686D
:1006600080B2704702460020D3680B4201D00120BF
:1006700000E0002070470146C86880B27047016101
:100680007047416170470AB1016100E04161704704
:10069000C16070474FF480320A4382618161826198
:1006A00082698269704702460020424B18684FF603
:1006B0008073184040EA021008433E4B18607047B0
:1006C0003D49C8617047F0B50A4600230024002167
:1006D000002500F00046B6F1004F02D1354EF16919
:1006E00001E0344E7168C0F3034583B200F4401654
:1006F000B6F5401F08D121F070612E4E766826F0C5
:1007000070662C4F7E6012E000F48016B6F5801FF4
:1007100006D1032606FA05F4A14341F0706106E014
:10072000460D360103FA06F6B14341F0706122B17D
:10073000460D360103FA06F6314300F00046B6F1E5
:10074000004F02D11B4EF16101E01A4E7160F0BD05
:1007500030B500228B071C0F0F2303FA04F2154B50
:1007600008338C1053F824309343124C08348D1006
:1007700044F8253023468C1053F824308C07240F7E
:1007800000FA04F423430B4C08348D1044F8253050
:1007900030BD0A490860704700080140000C014064
:1007A000001001400014014000180140001C0140ED
:1007B000002001400000014000002042DC002042F7
:1007C000DD48006840F00100DB49086008464068E9
:1007D000DA490840D849486008460068D8490840C6
:1007E000D54908600846006820F480200860084663
:1007F000406820F4FE0048604FF41F008860704796
:10080000CD49096821F48031CB4A1160114609684D
:1008100021F480211160B0F5803F03D0B0F5802F26
:100820000ED106E0C449096841F48031C24A116022
:1008300007E0C149096841F4A021BF4A116000E006
:1008400000BF00BF704710B5014600220023002002
:100850004A11012A02D1B84C236806E0022A02D1CB
:10086000B54C236A01E0B44C636A01F01F02012415
:1008700094401C4201D0012000E0002010BD38B59A
:10088000002000900024002500BF3120FFF7DBFF8F
:1008900005460098401C00900098B0F5A06F01D06C
:1008A000002DF2D03120FFF7CEFF08B1012400E087
:1008B0000024204638BD014600209F4A106820F0E1
:1008C000F80040EAC100106070479E490860704718
:1008D00002460020984B586820F47C1042EA01033D
:1008E0001843954B58607047964908667047014613
:1008F0000020914A506820F0030008435060704780
:100900008D48406800F00C007047014600208A4A7C
:10091000506820F0F0000843506070470146002006
:10092000854A506820F4E0600843506070470146F3
:100930000020814A506820F4605040EAC1005060B5
:10094000704729B17C4A527A02437B4B5A7204E0C9
:10095000794A527A8243784B5A7270477A490860D2
:10096000704701460020744A506820F44040084314
:10097000506070470021754A11706F4A82F820104C
:10098000012802D0042808D103E001216F4A117028
:1009900004E005216D4A117000E000BF00BF704700
:1009A0006B49086070476449096A0143624A1162F1
:1009B0007047674944390860704730B5002100220C
:1009C000002400235C4D6D6805F00C0121B1042961
:1009D00005D0082923D105E05E4D056022E05D4D7C
:1009E00005601FE0544D6D6805F47012524D6D683E
:1009F00005F48034022505EB92421CB9564D55434F
:100A000005600BE04C4D6D6815F4003F03D0524D6E
:100A10005543056002E04F4D5543056002E04D4DE2
:100A2000056000BF00BF444D6D6805F0F001090985
:100A30004A4D6B5C0568DD4045603F4D6D6805F4CF
:100A4000E061090A454D6B5C4568DD4085603A4DC3
:100A50006D6805F46051C90A404D6B5C4568DD4026
:100A6000C560354D6D6805F44041890B3C4D6B5CAC
:100A7000C568B5FBF3F5056130BD29B12E4A526951
:100A800002432D4B5A6104E02B4A526982432A4BA0
:100A90005A61704729B1284A92690243264B9A61EC
:100AA00004E0254A92698243234B9A61704729B139
:100AB000214AD2690243204BDA6104E01E4AD2691E
:100AC00082431D4BDA61704729B11B4AD268024349
:100AD000194BDA6004E0184AD2688243164BDA6098
:100AE000704729B1144A12690243134B1A6104E09A
:100AF000114A12698243104B1A61704714494039F8
:100B0000086070470F49C86470470B49C871704747
:100B10000948406A40F080700749486270470146C2
:100B20000020054A92680A4201D0012000E000201E
:100B30007047014988727047001002400000FFF8BA
:100B4000FFFFF6FE00004242D80042422010024061
:100B50008004424200127A0000093D001400002087
:100B6000240000200948804709480047FEE7FEE7C7
:100B7000FEE7FEE7FEE7FEE7FEE7FEE7FEE7FEE74D
:100B800004480549054A064B704700006903000800
:100B9000310100088800002088060020880200201B
:100BA00088020020704770477047754600F028F8AB
:100BB000AE4605006946534620F00700854618B04A
:100BC00020B5FFF7DDFFBDE820404FF000064FF0F5
:100BD00000074FF000084FF0000B21F00701AC4672
:100BE000ACE8C009ACE8C009ACE8C009ACE8C00991
:100BF0008D4670470446AFF300802046FFF7DFFACA
:100C0000004870472800002001491820ABBEFEE7CD
:100C10002600020070470000380C00080000002089
:100C2000280000006C010008600C0008280000206B
:100C3000600600008801000800A24A0400000000CD
:100C4000000000000102030406070809000000007C
:100C5000010203040102030406070809020406084E
:0400000508000131BD
:00000001FF
